{
  "contractName": "EWasteManagement",
  "abi": [
    {
      "inputs": [],
      "stateMutability": "nonpayable",
      "type": "constructor"
    },
    {
      "anonymous": false,
      "inputs": [
        {
          "indexed": true,
          "internalType": "uint256",
          "name": "requestId",
          "type": "uint256"
        },
        {
          "indexed": true,
          "internalType": "address",
          "name": "userAddress",
          "type": "address"
        },
        {
          "indexed": false,
          "internalType": "uint256",
          "name": "amount",
          "type": "uint256"
        }
      ],
      "name": "PaymentSent",
      "type": "event"
    },
    {
      "anonymous": false,
      "inputs": [
        {
          "indexed": true,
          "internalType": "uint256",
          "name": "requestId",
          "type": "uint256"
        },
        {
          "indexed": false,
          "internalType": "string",
          "name": "deviceName",
          "type": "string"
        },
        {
          "indexed": false,
          "internalType": "string",
          "name": "deviceIssue",
          "type": "string"
        },
        {
          "indexed": false,
          "internalType": "string",
          "name": "description",
          "type": "string"
        },
        {
          "indexed": false,
          "internalType": "uint16",
          "name": "purchaseYear",
          "type": "uint16"
        },
        {
          "indexed": true,
          "internalType": "address",
          "name": "userAddress",
          "type": "address"
        }
      ],
      "name": "RequestCreated",
      "type": "event"
    },
    {
      "inputs": [],
      "name": "owner",
      "outputs": [
        {
          "internalType": "address",
          "name": "",
          "type": "address"
        }
      ],
      "stateMutability": "view",
      "type": "function"
    },
    {
      "inputs": [
        {
          "internalType": "uint256",
          "name": "",
          "type": "uint256"
        }
      ],
      "name": "repairRequests",
      "outputs": [
        {
          "internalType": "uint256",
          "name": "id",
          "type": "uint256"
        },
        {
          "internalType": "string",
          "name": "deviceName",
          "type": "string"
        },
        {
          "internalType": "string",
          "name": "deviceIssue",
          "type": "string"
        },
        {
          "internalType": "string",
          "name": "description",
          "type": "string"
        },
        {
          "internalType": "uint16",
          "name": "purchaseYear",
          "type": "uint16"
        },
        {
          "internalType": "address",
          "name": "userAddress",
          "type": "address"
        },
        {
          "internalType": "bool",
          "name": "isPaid",
          "type": "bool"
        },
        {
          "internalType": "uint256",
          "name": "amountPaid",
          "type": "uint256"
        },
        {
          "internalType": "uint256",
          "name": "timestamp",
          "type": "uint256"
        }
      ],
      "stateMutability": "view",
      "type": "function"
    },
    {
      "inputs": [
        {
          "internalType": "uint256",
          "name": "",
          "type": "uint256"
        }
      ],
      "name": "requestToUser",
      "outputs": [
        {
          "internalType": "address",
          "name": "",
          "type": "address"
        }
      ],
      "stateMutability": "view",
      "type": "function"
    },
    {
      "inputs": [
        {
          "internalType": "address",
          "name": "",
          "type": "address"
        },
        {
          "internalType": "uint256",
          "name": "",
          "type": "uint256"
        }
      ],
      "name": "userRequests",
      "outputs": [
        {
          "internalType": "uint256",
          "name": "",
          "type": "uint256"
        }
      ],
      "stateMutability": "view",
      "type": "function"
    },
    {
      "inputs": [
        {
          "internalType": "string",
          "name": "_deviceName",
          "type": "string"
        },
        {
          "internalType": "string",
          "name": "_deviceIssue",
          "type": "string"
        },
        {
          "internalType": "string",
          "name": "_description",
          "type": "string"
        },
        {
          "internalType": "uint16",
          "name": "_purchaseYear",
          "type": "uint16"
        }
      ],
      "name": "createRequest",
      "outputs": [],
      "stateMutability": "nonpayable",
      "type": "function"
    },
    {
      "inputs": [
        {
          "internalType": "uint256",
          "name": "_requestId",
          "type": "uint256"
        }
      ],
      "name": "payUser",
      "outputs": [],
      "stateMutability": "payable",
      "type": "function"
    },
    {
      "inputs": [],
      "name": "getAllRequests",
      "outputs": [
        {
          "components": [
            {
              "internalType": "uint256",
              "name": "id",
              "type": "uint256"
            },
            {
              "internalType": "string",
              "name": "deviceName",
              "type": "string"
            },
            {
              "internalType": "string",
              "name": "deviceIssue",
              "type": "string"
            },
            {
              "internalType": "string",
              "name": "description",
              "type": "string"
            },
            {
              "internalType": "uint16",
              "name": "purchaseYear",
              "type": "uint16"
            },
            {
              "internalType": "address",
              "name": "userAddress",
              "type": "address"
            },
            {
              "internalType": "bool",
              "name": "isPaid",
              "type": "bool"
            },
            {
              "internalType": "uint256",
              "name": "amountPaid",
              "type": "uint256"
            },
            {
              "internalType": "uint256",
              "name": "timestamp",
              "type": "uint256"
            }
          ],
          "internalType": "struct EWasteManagement.RepairRequest[]",
          "name": "",
          "type": "tuple[]"
        }
      ],
      "stateMutability": "view",
      "type": "function"
    },
    {
      "inputs": [
        {
          "internalType": "address",
          "name": "_user",
          "type": "address"
        }
      ],
      "name": "getUserRequests",
      "outputs": [
        {
          "components": [
            {
              "internalType": "uint256",
              "name": "id",
              "type": "uint256"
            },
            {
              "internalType": "string",
              "name": "deviceName",
              "type": "string"
            },
            {
              "internalType": "string",
              "name": "deviceIssue",
              "type": "string"
            },
            {
              "internalType": "string",
              "name": "description",
              "type": "string"
            },
            {
              "internalType": "uint16",
              "name": "purchaseYear",
              "type": "uint16"
            },
            {
              "internalType": "address",
              "name": "userAddress",
              "type": "address"
            },
            {
              "internalType": "bool",
              "name": "isPaid",
              "type": "bool"
            },
            {
              "internalType": "uint256",
              "name": "amountPaid",
              "type": "uint256"
            },
            {
              "internalType": "uint256",
              "name": "timestamp",
              "type": "uint256"
            }
          ],
          "internalType": "struct EWasteManagement.RepairRequest[]",
          "name": "",
          "type": "tuple[]"
        }
      ],
      "stateMutability": "view",
      "type": "function"
    },
    {
      "inputs": [],
      "name": "getMyRequests",
      "outputs": [
        {
          "components": [
            {
              "internalType": "uint256",
              "name": "id",
              "type": "uint256"
            },
            {
              "internalType": "string",
              "name": "deviceName",
              "type": "string"
            },
            {
              "internalType": "string",
              "name": "deviceIssue",
              "type": "string"
            },
            {
              "internalType": "string",
              "name": "description",
              "type": "string"
            },
            {
              "internalType": "uint16",
              "name": "purchaseYear",
              "type": "uint16"
            },
            {
              "internalType": "address",
              "name": "userAddress",
              "type": "address"
            },
            {
              "internalType": "bool",
              "name": "isPaid",
              "type": "bool"
            },
            {
              "internalType": "uint256",
              "name": "amountPaid",
              "type": "uint256"
            },
            {
              "internalType": "uint256",
              "name": "timestamp",
              "type": "uint256"
            }
          ],
          "internalType": "struct EWasteManagement.RepairRequest[]",
          "name": "",
          "type": "tuple[]"
        }
      ],
      "stateMutability": "view",
      "type": "function"
    }
  ],
  "bytecode": "0x608060405234801561001057600080fd5b50336000806101000a81548173ffffffffffffffffffffffffffffffffffffffff021916908373ffffffffffffffffffffffffffffffffffffffff160217905550611d0c806100606000396000f3fe6080604052600436106100865760003560e01c80638da5cb5b116100595780638da5cb5b1461017357806391eace8b1461019e578063b337cf74146101c9578063b5bfa43614610206578063fb1a002a1461022257610086565b8063263cb6b61461008b57806334979e1d146100c857806334c391f5146100f15780633e2f7eb514610136575b600080fd5b34801561009757600080fd5b506100b260048036038101906100ad91906113a3565b61024d565b6040516100bf919061195c565b60405180910390f35b3480156100d457600080fd5b506100ef60048036038101906100ea91906113df565b61027e565b005b3480156100fd57600080fd5b506101186004803603810190610113919061148a565b61052d565b60405161012d99989796959493929190611977565b60405180910390f35b34801561014257600080fd5b5061015d6004803603810190610158919061148a565b61075e565b60405161016a9190611845565b60405180910390f35b34801561017f57600080fd5b50610188610791565b6040516101959190611845565b60405180910390f35b3480156101aa57600080fd5b506101b36107b5565b6040516101c09190611860565b60405180910390f35b3480156101d557600080fd5b506101f060048036038101906101eb919061137a565b6107c5565b6040516101fd9190611860565b60405180910390f35b610220600480360381019061021b919061148a565b610c3f565b005b34801561022e57600080fd5b50610237610f03565b6040516102449190611860565b60405180910390f35b6003602052816000526040600020818154811061026957600080fd5b90600052602060002001600091509150505481565b6000600180549050905060006040518061012001604052808381526020018781526020018681526020018581526020018461ffff1681526020013373ffffffffffffffffffffffffffffffffffffffff16815260200160001515815260200160008152602001428152509050600181908060018154018082558091505060019003906000526020600020906007020160009091909190915060008201518160000155602082015181600101908051906020019061033c9291906111c8565b5060408201518160020190805190602001906103599291906111c8565b5060608201518160030190805190602001906103769291906111c8565b5060808201518160040160006101000a81548161ffff021916908361ffff16021790555060a08201518160040160026101000a81548173ffffffffffffffffffffffffffffffffffffffff021916908373ffffffffffffffffffffffffffffffffffffffff16021790555060c08201518160040160166101000a81548160ff02191690831515021790555060e0820151816005015561010082015181600601555050336002600084815260200190815260200160002060006101000a81548173ffffffffffffffffffffffffffffffffffffffff021916908373ffffffffffffffffffffffffffffffffffffffff160217905550600360003373ffffffffffffffffffffffffffffffffffffffff1673ffffffffffffffffffffffffffffffffffffffff1681526020019081526020016000208290806001815401808255809150506001900390600052602060002001600090919091909150553373ffffffffffffffffffffffffffffffffffffffff16827f6871b44a986d431b482319742738f1a7fbb37c7b3ef743ee6af658f9e98ff7f88888888860405161051d9493929190611882565b60405180910390a3505050505050565b6001818154811061053d57600080fd5b906000526020600020906007020160009150905080600001549080600101805461056690611b78565b80601f016020809104026020016040519081016040528092919081815260200182805461059290611b78565b80156105df5780601f106105b4576101008083540402835291602001916105df565b820191906000526020600020905b8154815290600101906020018083116105c257829003601f168201915b5050505050908060020180546105f490611b78565b80601f016020809104026020016040519081016040528092919081815260200182805461062090611b78565b801561066d5780601f106106425761010080835404028352916020019161066d565b820191906000526020600020905b81548152906001019060200180831161065057829003601f168201915b50505050509080600301805461068290611b78565b80601f01602080910402602001604051908101604052809291908181526020018280546106ae90611b78565b80156106fb5780601f106106d0576101008083540402835291602001916106fb565b820191906000526020600020905b8154815290600101906020018083116106de57829003601f168201915b5050505050908060040160009054906101000a900461ffff16908060040160029054906101000a900473ffffffffffffffffffffffffffffffffffffffff16908060040160169054906101000a900460ff16908060050154908060060154905089565b60026020528060005260406000206000915054906101000a900473ffffffffffffffffffffffffffffffffffffffff1681565b60008054906101000a900473ffffffffffffffffffffffffffffffffffffffff1681565b60606107c0336107c5565b905090565b60606000600360008473ffffffffffffffffffffffffffffffffffffffff1673ffffffffffffffffffffffffffffffffffffffff16815260200190815260200160002080548060200260200160405190810160405280929190818152602001828054801561085257602002820191906000526020600020905b81548152602001906001019080831161083e575b505050505090506000815167ffffffffffffffff81111561089c577f4e487b7100000000000000000000000000000000000000000000000000000000600052604160045260246000fd5b6040519080825280602002602001820160405280156108d557816020015b6108c261124e565b8152602001906001900390816108ba5790505b50905060005b8251811015610c3457600183828151811061091f577f4e487b7100000000000000000000000000000000000000000000000000000000600052603260045260246000fd5b60200260200101518154811061095e577f4e487b7100000000000000000000000000000000000000000000000000000000600052603260045260246000fd5b9060005260206000209060070201604051806101200160405290816000820154815260200160018201805461099290611b78565b80601f01602080910402602001604051908101604052809291908181526020018280546109be90611b78565b8015610a0b5780601f106109e057610100808354040283529160200191610a0b565b820191906000526020600020905b8154815290600101906020018083116109ee57829003601f168201915b50505050508152602001600282018054610a2490611b78565b80601f0160208091040260200160405190810160405280929190818152602001828054610a5090611b78565b8015610a9d5780601f10610a7257610100808354040283529160200191610a9d565b820191906000526020600020905b815481529060010190602001808311610a8057829003601f168201915b50505050508152602001600382018054610ab690611b78565b80601f0160208091040260200160405190810160405280929190818152602001828054610ae290611b78565b8015610b2f5780601f10610b0457610100808354040283529160200191610b2f565b820191906000526020600020905b815481529060010190602001808311610b1257829003601f168201915b505050505081526020016004820160009054906101000a900461ffff1661ffff1661ffff1681526020016004820160029054906101000a900473ffffffffffffffffffffffffffffffffffffffff1673ffffffffffffffffffffffffffffffffffffffff1673ffffffffffffffffffffffffffffffffffffffff1681526020016004820160169054906101000a900460ff1615151515815260200160058201548152602001600682015481525050828281518110610c16577f4e487b7100000000000000000000000000000000000000000000000000000000600052603260045260246000fd5b60200260200101819052508080610c2c90611baa565b9150506108db565b508092505050919050565b60008054906101000a900473ffffffffffffffffffffffffffffffffffffffff1673ffffffffffffffffffffffffffffffffffffffff163373ffffffffffffffffffffffffffffffffffffffff1614610ccd576040517f08c379a0000000000000000000000000000000000000000000000000000000008152600401610cc4906118dc565b60405180910390fd5b6001805490508110610d14576040517f08c379a0000000000000000000000000000000000000000000000000000000008152600401610d0b9061193c565b60405180910390fd5b600060018281548110610d50577f4e487b7100000000000000000000000000000000000000000000000000000000600052603260045260246000fd5b906000526020600020906007020190508060040160169054906101000a900460ff1615610db2576040517f08c379a0000000000000000000000000000000000000000000000000000000008152600401610da99061191c565b60405180910390fd5b60003411610df5576040517f08c379a0000000000000000000000000000000000000000000000000000000008152600401610dec906118fc565b60405180910390fd5b60008160040160029054906101000a900473ffffffffffffffffffffffffffffffffffffffff1690508073ffffffffffffffffffffffffffffffffffffffff166108fc349081150290604051600060405180830381858888f19350505050158015610e64573d6000803e3d6000fd5b5060018260040160166101000a81548160ff0219169083151502179055503482600501819055508160040160029054906101000a900473ffffffffffffffffffffffffffffffffffffffff1673ffffffffffffffffffffffffffffffffffffffff16837f952e5301753c5bc62cbfbdbe1b6553cd54796e01da9cfeaaf29921d6ede1a72634604051610ef6919061195c565b60405180910390a3505050565b60606001805480602002602001604051908101604052809291908181526020016000905b828210156111bf57838290600052602060002090600702016040518061012001604052908160008201548152602001600182018054610f6590611b78565b80601f0160208091040260200160405190810160405280929190818152602001828054610f9190611b78565b8015610fde5780601f10610fb357610100808354040283529160200191610fde565b820191906000526020600020905b815481529060010190602001808311610fc157829003601f168201915b50505050508152602001600282018054610ff790611b78565b80601f016020809104026020016040519081016040528092919081815260200182805461102390611b78565b80156110705780601f1061104557610100808354040283529160200191611070565b820191906000526020600020905b81548152906001019060200180831161105357829003601f168201915b5050505050815260200160038201805461108990611b78565b80601f01602080910402602001604051908101604052809291908181526020018280546110b590611b78565b80156111025780601f106110d757610100808354040283529160200191611102565b820191906000526020600020905b8154815290600101906020018083116110e557829003601f168201915b505050505081526020016004820160009054906101000a900461ffff1661ffff1661ffff1681526020016004820160029054906101000a900473ffffffffffffffffffffffffffffffffffffffff1673ffffffffffffffffffffffffffffffffffffffff1673ffffffffffffffffffffffffffffffffffffffff1681526020016004820160169054906101000a900460ff161515151581526020016005820154815260200160068201548152505081526020019060010190610f27565b50505050905090565b8280546111d490611b78565b90600052602060002090601f0160209004810192826111f6576000855561123d565b82601f1061120f57805160ff191683800117855561123d565b8280016001018555821561123d579182015b8281111561123c578251825591602001919060010190611221565b5b50905061124a91906112b6565b5090565b60405180610120016040528060008152602001606081526020016060815260200160608152602001600061ffff168152602001600073ffffffffffffffffffffffffffffffffffffffff16815260200160001515815260200160008152602001600081525090565b5b808211156112cf5760008160009055506001016112b7565b5090565b60006112e66112e184611a4a565b611a19565b9050828152602081018484840111156112fe57600080fd5b611309848285611b36565b509392505050565b60008135905061132081611c91565b92915050565b600082601f83011261133757600080fd5b81356113478482602086016112d3565b91505092915050565b60008135905061135f81611ca8565b92915050565b60008135905061137481611cbf565b92915050565b60006020828403121561138c57600080fd5b600061139a84828501611311565b91505092915050565b600080604083850312156113b657600080fd5b60006113c485828601611311565b92505060206113d585828601611365565b9150509250929050565b600080600080608085870312156113f557600080fd5b600085013567ffffffffffffffff81111561140f57600080fd5b61141b87828801611326565b945050602085013567ffffffffffffffff81111561143857600080fd5b61144487828801611326565b935050604085013567ffffffffffffffff81111561146157600080fd5b61146d87828801611326565b925050606061147e87828801611350565b91505092959194509250565b60006020828403121561149c57600080fd5b60006114aa84828501611365565b91505092915050565b60006114bf8383611736565b905092915050565b6114d081611ae0565b82525050565b6114df81611ae0565b82525050565b60006114f082611a8a565b6114fa8185611aad565b93508360208202850161150c85611a7a565b8060005b85811015611548578484038952815161152985826114b3565b945061153483611aa0565b925060208a01995050600181019050611510565b50829750879550505050505092915050565b61156381611af2565b82525050565b61157281611af2565b82525050565b600061158382611a95565b61158d8185611abe565b935061159d818560208601611b45565b6115a681611c80565b840191505092915050565b60006115bc82611a95565b6115c68185611acf565b93506115d6818560208601611b45565b6115df81611c80565b840191505092915050565b60006115f7602183611acf565b91507f4f6e6c79206f776e65722063616e2063616c6c20746869732066756e6374696f60008301527f6e000000000000000000000000000000000000000000000000000000000000006020830152604082019050919050565b600061165d602583611acf565b91507f5061796d656e7420616d6f756e74206d7573742062652067726561746572207460008301527f68616e20300000000000000000000000000000000000000000000000000000006020830152604082019050919050565b60006116c3601483611acf565b91507f5061796d656e7420616c72656164792073656e740000000000000000000000006000830152602082019050919050565b6000611703601683611acf565b91507f5265717565737420646f6573206e6f74206578697374000000000000000000006000830152602082019050919050565b60006101208301600083015161174f6000860182611827565b50602083015184820360208601526117678282611578565b915050604083015184820360408601526117818282611578565b9150506060830151848203606086015261179b8282611578565b91505060808301516117b06080860182611809565b5060a08301516117c360a08601826114c7565b5060c08301516117d660c086018261155a565b5060e08301516117e960e0860182611827565b506101008301516117fe610100860182611827565b508091505092915050565b61181281611afe565b82525050565b61182181611afe565b82525050565b61183081611b2c565b82525050565b61183f81611b2c565b82525050565b600060208201905061185a60008301846114d6565b92915050565b6000602082019050818103600083015261187a81846114e5565b905092915050565b6000608082019050818103600083015261189c81876115b1565b905081810360208301526118b081866115b1565b905081810360408301526118c481856115b1565b90506118d36060830184611818565b95945050505050565b600060208201905081810360008301526118f5816115ea565b9050919050565b6000602082019050818103600083015261191581611650565b9050919050565b60006020820190508181036000830152611935816116b6565b9050919050565b60006020820190508181036000830152611955816116f6565b9050919050565b60006020820190506119716000830184611836565b92915050565b60006101208201905061198d600083018c611836565b818103602083015261199f818b6115b1565b905081810360408301526119b3818a6115b1565b905081810360608301526119c781896115b1565b90506119d66080830188611818565b6119e360a08301876114d6565b6119f060c0830186611569565b6119fd60e0830185611836565b611a0b610100830184611836565b9a9950505050505050505050565b6000604051905081810181811067ffffffffffffffff82111715611a4057611a3f611c51565b5b8060405250919050565b600067ffffffffffffffff821115611a6557611a64611c51565b5b601f19601f8301169050602081019050919050565b6000819050602082019050919050565b600081519050919050565b600081519050919050565b6000602082019050919050565b600082825260208201905092915050565b600082825260208201905092915050565b600082825260208201905092915050565b6000611aeb82611b0c565b9050919050565b60008115159050919050565b600061ffff82169050919050565b600073ffffffffffffffffffffffffffffffffffffffff82169050919050565b6000819050919050565b82818337600083830152505050565b60005b83811015611b63578082015181840152602081019050611b48565b83811115611b72576000848401525b50505050565b60006002820490506001821680611b9057607f821691505b60208210811415611ba457611ba3611c22565b5b50919050565b6000611bb582611b2c565b91507fffffffffffffffffffffffffffffffffffffffffffffffffffffffffffffffff821415611be857611be7611bf3565b5b600182019050919050565b7f4e487b7100000000000000000000000000000000000000000000000000000000600052601160045260246000fd5b7f4e487b7100000000000000000000000000000000000000000000000000000000600052602260045260246000fd5b7f4e487b7100000000000000000000000000000000000000000000000000000000600052604160045260246000fd5b6000601f19601f8301169050919050565b611c9a81611ae0565b8114611ca557600080fd5b50565b611cb181611afe565b8114611cbc57600080fd5b50565b611cc881611b2c565b8114611cd357600080fd5b5056fea264697066735822122065794eed86b905ac7effb7eb8958a9f5d537ea9dceff1f4b605e0cd0d7818fb564736f6c63430008000033",
  "immutableReferences": {},
  "source": "// SPDX-License-Identifier: MIT\r\npragma solidity ^0.8.0;\r\n\r\ncontract EWasteManagement {\r\n    address public owner;\r\n\r\n    struct RepairRequest {\r\n        uint256 id;\r\n        string deviceName;\r\n        string deviceIssue;\r\n        string description;\r\n        uint16 purchaseYear;\r\n        address userAddress;\r\n        bool isPaid;\r\n        uint256 amountPaid;\r\n        uint256 timestamp;\r\n    }\r\n\r\n    RepairRequest[] public repairRequests;\r\n    mapping(uint256 => address) public requestToUser;\r\n    mapping(address => uint256[]) public userRequests;\r\n\r\n    event RequestCreated(\r\n        uint256 indexed requestId,\r\n        string deviceName,\r\n        string deviceIssue,\r\n        string description,\r\n        uint16 purchaseYear,\r\n        address indexed userAddress\r\n    );\r\n\r\n    event PaymentSent(uint256 indexed requestId, address indexed userAddress, uint256 amount);\r\n\r\n    constructor() {\r\n        owner = msg.sender;\r\n    }\r\n\r\n    modifier onlyOwner() {\r\n        require(msg.sender == owner, \"Only owner can call this function\");\r\n        _;\r\n    }\r\n\r\n    function createRequest(\r\n        string memory _deviceName,\r\n        string memory _deviceIssue,\r\n        string memory _description,\r\n        uint16 _purchaseYear\r\n    ) public {\r\n        uint256 requestId = repairRequests.length;\r\n\r\n        RepairRequest memory newRequest = RepairRequest({\r\n            id: requestId,\r\n            deviceName: _deviceName,\r\n            deviceIssue: _deviceIssue,\r\n            description: _description,\r\n            purchaseYear: _purchaseYear,\r\n            userAddress: msg.sender,\r\n            isPaid: false,\r\n            amountPaid: 0,\r\n            timestamp: block.timestamp\r\n        });\r\n\r\n        repairRequests.push(newRequest);\r\n        requestToUser[requestId] = msg.sender;\r\n        userRequests[msg.sender].push(requestId);\r\n\r\n        emit RequestCreated(\r\n            requestId,\r\n            _deviceName,\r\n            _deviceIssue,\r\n            _description,\r\n            _purchaseYear,\r\n            msg.sender\r\n        );\r\n    }\r\n\r\n    function payUser(uint256 _requestId) public payable onlyOwner {\r\n        require(_requestId < repairRequests.length, \"Request does not exist\");\r\n        RepairRequest storage request = repairRequests[_requestId];\r\n        require(!request.isPaid, \"Payment already sent\");\r\n        require(msg.value > 0, \"Payment amount must be greater than 0\");\r\n\r\n        address payable user = payable(request.userAddress);\r\n        user.transfer(msg.value);\r\n\r\n        request.isPaid = true;\r\n        request.amountPaid = msg.value;\r\n\r\n        emit PaymentSent(_requestId, request.userAddress, msg.value);\r\n    }\r\n\r\n    function getAllRequests() public view returns (RepairRequest[] memory) {\r\n        return repairRequests;\r\n    }\r\n\r\n    function getUserRequests(address _user) public view returns (RepairRequest[] memory) {\r\n        uint256[] memory requestIds = userRequests[_user];\r\n        RepairRequest[] memory requests = new RepairRequest[](requestIds.length);\r\n\r\n        for (uint256 i = 0; i < requestIds.length; i++) {\r\n            requests[i] = repairRequests[requestIds[i]];\r\n        }\r\n\r\n        return requests;\r\n    }\r\n\r\n    function getMyRequests() public view returns (RepairRequest[] memory) {\r\n        return getUserRequests(msg.sender);\r\n    }\r\n}\r\n",
  "sourcePath": "C:\\Users\\rambp\\Desktop\\aavartak-truffle\\contracts\\EWasteManagement.sol",
  "compiler": {
    "name": "solc",
    "version": "0.8.0+commit.c7dfd78e.Emscripten.clang"
  },
  "schemaVersion": "3.4.16",
  "updatedAt": "2025-04-05T20:45:00.957Z",
  "devdoc": {
    "kind": "dev",
    "methods": {},
    "version": 1
  },
  "userdoc": {
    "kind": "user",
    "methods": {},
    "version": 1
  }
}