{
  "contractName": "EWasteManagement",
  "abi": [
    {
      "inputs": [],
      "stateMutability": "nonpayable",
      "type": "constructor"
    },
    {
      "anonymous": false,
      "inputs": [
        {
          "indexed": true,
          "internalType": "uint256",
          "name": "requestId",
          "type": "uint256"
        },
        {
          "indexed": true,
          "internalType": "address",
          "name": "userAddress",
          "type": "address"
        },
        {
          "indexed": false,
          "internalType": "uint256",
          "name": "amount",
          "type": "uint256"
        }
      ],
      "name": "PaymentSent",
      "type": "event"
    },
    {
      "anonymous": false,
      "inputs": [
        {
          "indexed": true,
          "internalType": "uint256",
          "name": "requestId",
          "type": "uint256"
        },
        {
          "indexed": false,
          "internalType": "string",
          "name": "deviceName",
          "type": "string"
        },
        {
          "indexed": false,
          "internalType": "string",
          "name": "deviceIssue",
          "type": "string"
        },
        {
          "indexed": false,
          "internalType": "string",
          "name": "description",
          "type": "string"
        },
        {
          "indexed": false,
          "internalType": "uint16",
          "name": "purchaseYear",
          "type": "uint16"
        },
        {
          "indexed": true,
          "internalType": "address",
          "name": "userAddress",
          "type": "address"
        }
      ],
      "name": "RequestCreated",
      "type": "event"
    },
    {
      "inputs": [],
      "name": "owner",
      "outputs": [
        {
          "internalType": "address",
          "name": "",
          "type": "address"
        }
      ],
      "stateMutability": "view",
      "type": "function"
    },
    {
      "inputs": [
        {
          "internalType": "uint256",
          "name": "",
          "type": "uint256"
        }
      ],
      "name": "repairRequests",
      "outputs": [
        {
          "internalType": "uint256",
          "name": "id",
          "type": "uint256"
        },
        {
          "internalType": "string",
          "name": "deviceName",
          "type": "string"
        },
        {
          "internalType": "string",
          "name": "deviceIssue",
          "type": "string"
        },
        {
          "internalType": "string",
          "name": "description",
          "type": "string"
        },
        {
          "internalType": "uint16",
          "name": "purchaseYear",
          "type": "uint16"
        },
        {
          "internalType": "address",
          "name": "userAddress",
          "type": "address"
        },
        {
          "internalType": "bool",
          "name": "isPaid",
          "type": "bool"
        },
        {
          "internalType": "uint256",
          "name": "amountPaid",
          "type": "uint256"
        },
        {
          "internalType": "uint256",
          "name": "timestamp",
          "type": "uint256"
        }
      ],
      "stateMutability": "view",
      "type": "function"
    },
    {
      "inputs": [
        {
          "internalType": "uint256",
          "name": "",
          "type": "uint256"
        }
      ],
      "name": "requestToUser",
      "outputs": [
        {
          "internalType": "address",
          "name": "",
          "type": "address"
        }
      ],
      "stateMutability": "view",
      "type": "function"
    },
    {
      "inputs": [
        {
          "internalType": "address",
          "name": "",
          "type": "address"
        },
        {
          "internalType": "uint256",
          "name": "",
          "type": "uint256"
        }
      ],
      "name": "userRequests",
      "outputs": [
        {
          "internalType": "uint256",
          "name": "",
          "type": "uint256"
        }
      ],
      "stateMutability": "view",
      "type": "function"
    },
    {
      "inputs": [
        {
          "internalType": "string",
          "name": "_deviceName",
          "type": "string"
        },
        {
          "internalType": "string",
          "name": "_deviceIssue",
          "type": "string"
        },
        {
          "internalType": "string",
          "name": "_description",
          "type": "string"
        },
        {
          "internalType": "uint16",
          "name": "_purchaseYear",
          "type": "uint16"
        }
      ],
      "name": "createRequest",
      "outputs": [],
      "stateMutability": "nonpayable",
      "type": "function"
    },
    {
      "inputs": [
        {
          "internalType": "uint256",
          "name": "_requestId",
          "type": "uint256"
        }
      ],
      "name": "payUser",
      "outputs": [],
      "stateMutability": "payable",
      "type": "function"
    },
    {
      "inputs": [],
      "name": "getAllRequests",
      "outputs": [
        {
          "components": [
            {
              "internalType": "uint256",
              "name": "id",
              "type": "uint256"
            },
            {
              "internalType": "string",
              "name": "deviceName",
              "type": "string"
            },
            {
              "internalType": "string",
              "name": "deviceIssue",
              "type": "string"
            },
            {
              "internalType": "string",
              "name": "description",
              "type": "string"
            },
            {
              "internalType": "uint16",
              "name": "purchaseYear",
              "type": "uint16"
            },
            {
              "internalType": "address",
              "name": "userAddress",
              "type": "address"
            },
            {
              "internalType": "bool",
              "name": "isPaid",
              "type": "bool"
            },
            {
              "internalType": "uint256",
              "name": "amountPaid",
              "type": "uint256"
            },
            {
              "internalType": "uint256",
              "name": "timestamp",
              "type": "uint256"
            }
          ],
          "internalType": "struct EWasteManagement.RepairRequest[]",
          "name": "",
          "type": "tuple[]"
        }
      ],
      "stateMutability": "view",
      "type": "function"
    },
    {
      "inputs": [
        {
          "internalType": "address",
          "name": "_user",
          "type": "address"
        }
      ],
      "name": "getUserRequests",
      "outputs": [
        {
          "components": [
            {
              "internalType": "uint256",
              "name": "id",
              "type": "uint256"
            },
            {
              "internalType": "string",
              "name": "deviceName",
              "type": "string"
            },
            {
              "internalType": "string",
              "name": "deviceIssue",
              "type": "string"
            },
            {
              "internalType": "string",
              "name": "description",
              "type": "string"
            },
            {
              "internalType": "uint16",
              "name": "purchaseYear",
              "type": "uint16"
            },
            {
              "internalType": "address",
              "name": "userAddress",
              "type": "address"
            },
            {
              "internalType": "bool",
              "name": "isPaid",
              "type": "bool"
            },
            {
              "internalType": "uint256",
              "name": "amountPaid",
              "type": "uint256"
            },
            {
              "internalType": "uint256",
              "name": "timestamp",
              "type": "uint256"
            }
          ],
          "internalType": "struct EWasteManagement.RepairRequest[]",
          "name": "",
          "type": "tuple[]"
        }
      ],
      "stateMutability": "view",
      "type": "function"
    },
    {
      "inputs": [],
      "name": "getMyRequests",
      "outputs": [
        {
          "components": [
            {
              "internalType": "uint256",
              "name": "id",
              "type": "uint256"
            },
            {
              "internalType": "string",
              "name": "deviceName",
              "type": "string"
            },
            {
              "internalType": "string",
              "name": "deviceIssue",
              "type": "string"
            },
            {
              "internalType": "string",
              "name": "description",
              "type": "string"
            },
            {
              "internalType": "uint16",
              "name": "purchaseYear",
              "type": "uint16"
            },
            {
              "internalType": "address",
              "name": "userAddress",
              "type": "address"
            },
            {
              "internalType": "bool",
              "name": "isPaid",
              "type": "bool"
            },
            {
              "internalType": "uint256",
              "name": "amountPaid",
              "type": "uint256"
            },
            {
              "internalType": "uint256",
              "name": "timestamp",
              "type": "uint256"
            }
          ],
          "internalType": "struct EWasteManagement.RepairRequest[]",
          "name": "",
          "type": "tuple[]"
        }
      ],
      "stateMutability": "view",
      "type": "function"
    },
    {
      "inputs": [
        {
          "internalType": "address",
          "name": "_user",
          "type": "address"
        }
      ],
      "name": "getLatestRequestId",
      "outputs": [
        {
          "internalType": "uint256",
          "name": "",
          "type": "uint256"
        }
      ],
      "stateMutability": "view",
      "type": "function"
    }
  ],
  "bytecode": "0x608060405234801561001057600080fd5b50336000806101000a81548173ffffffffffffffffffffffffffffffffffffffff021916908373ffffffffffffffffffffffffffffffffffffffff160217905550611f45806100606000396000f3fe6080604052600436106100915760003560e01c80638da5cb5b116100595780638da5cb5b146101bb57806391eace8b146101e6578063b337cf7414610211578063b5bfa4361461024e578063fb1a002a1461026a57610091565b8063263cb6b61461009657806334979e1d146100d357806334c391f5146100fc5780633e2f7eb51461014157806356bb7c511461017e575b600080fd5b3480156100a257600080fd5b506100bd60048036038101906100b89190611548565b610295565b6040516100ca9190611b61565b60405180910390f35b3480156100df57600080fd5b506100fa60048036038101906100f59190611584565b6102c6565b005b34801561010857600080fd5b50610123600480360381019061011e919061162f565b610575565b60405161013899989796959493929190611b7c565b60405180910390f35b34801561014d57600080fd5b506101686004803603810190610163919061162f565b6107a6565b6040516101759190611a2a565b60405180910390f35b34801561018a57600080fd5b506101a560048036038101906101a0919061151f565b6107d9565b6040516101b29190611b61565b60405180910390f35b3480156101c757600080fd5b506101d0610936565b6040516101dd9190611a2a565b60405180910390f35b3480156101f257600080fd5b506101fb61095a565b6040516102089190611a45565b60405180910390f35b34801561021d57600080fd5b506102386004803603810190610233919061151f565b61096a565b6040516102459190611a45565b60405180910390f35b6102686004803603810190610263919061162f565b610de4565b005b34801561027657600080fd5b5061027f6110a8565b60405161028c9190611a45565b60405180910390f35b600360205281600052604060002081815481106102b157600080fd5b90600052602060002001600091509150505481565b6000600180549050905060006040518061012001604052808381526020018781526020018681526020018581526020018461ffff1681526020013373ffffffffffffffffffffffffffffffffffffffff16815260200160001515815260200160008152602001428152509050600181908060018154018082558091505060019003906000526020600020906007020160009091909190915060008201518160000155602082015181600101908051906020019061038492919061136d565b5060408201518160020190805190602001906103a192919061136d565b5060608201518160030190805190602001906103be92919061136d565b5060808201518160040160006101000a81548161ffff021916908361ffff16021790555060a08201518160040160026101000a81548173ffffffffffffffffffffffffffffffffffffffff021916908373ffffffffffffffffffffffffffffffffffffffff16021790555060c08201518160040160166101000a81548160ff02191690831515021790555060e0820151816005015561010082015181600601555050336002600084815260200190815260200160002060006101000a81548173ffffffffffffffffffffffffffffffffffffffff021916908373ffffffffffffffffffffffffffffffffffffffff160217905550600360003373ffffffffffffffffffffffffffffffffffffffff1673ffffffffffffffffffffffffffffffffffffffff1681526020019081526020016000208290806001815401808255809150506001900390600052602060002001600090919091909150553373ffffffffffffffffffffffffffffffffffffffff16827f6871b44a986d431b482319742738f1a7fbb37c7b3ef743ee6af658f9e98ff7f8888888886040516105659493929190611a67565b60405180910390a3505050505050565b6001818154811061058557600080fd5b90600052602060002090600702016000915090508060000154908060010180546105ae90611db1565b80601f01602080910402602001604051908101604052809291908181526020018280546105da90611db1565b80156106275780601f106105fc57610100808354040283529160200191610627565b820191906000526020600020905b81548152906001019060200180831161060a57829003601f168201915b50505050509080600201805461063c90611db1565b80601f016020809104026020016040519081016040528092919081815260200182805461066890611db1565b80156106b55780601f1061068a576101008083540402835291602001916106b5565b820191906000526020600020905b81548152906001019060200180831161069857829003601f168201915b5050505050908060030180546106ca90611db1565b80601f01602080910402602001604051908101604052809291908181526020018280546106f690611db1565b80156107435780601f1061071857610100808354040283529160200191610743565b820191906000526020600020905b81548152906001019060200180831161072657829003601f168201915b5050505050908060040160009054906101000a900461ffff16908060040160029054906101000a900473ffffffffffffffffffffffffffffffffffffffff16908060040160169054906101000a900460ff16908060050154908060060154905089565b60026020528060005260406000206000915054906101000a900473ffffffffffffffffffffffffffffffffffffffff1681565b600080600360008473ffffffffffffffffffffffffffffffffffffffff1673ffffffffffffffffffffffffffffffffffffffff168152602001908152602001600020805490501161085f576040517f08c379a000000000000000000000000000000000000000000000000000000000815260040161085690611b41565b60405180910390fd5b600360008373ffffffffffffffffffffffffffffffffffffffff1673ffffffffffffffffffffffffffffffffffffffff1681526020019081526020016000206001600360008573ffffffffffffffffffffffffffffffffffffffff1673ffffffffffffffffffffffffffffffffffffffff168152602001908152602001600020805490506108ed9190611ce5565b81548110610924577f4e487b7100000000000000000000000000000000000000000000000000000000600052603260045260246000fd5b90600052602060002001549050919050565b60008054906101000a900473ffffffffffffffffffffffffffffffffffffffff1681565b60606109653361096a565b905090565b60606000600360008473ffffffffffffffffffffffffffffffffffffffff1673ffffffffffffffffffffffffffffffffffffffff1681526020019081526020016000208054806020026020016040519081016040528092919081815260200182805480156109f757602002820191906000526020600020905b8154815260200190600101908083116109e3575b505050505090506000815167ffffffffffffffff811115610a41577f4e487b7100000000000000000000000000000000000000000000000000000000600052604160045260246000fd5b604051908082528060200260200182016040528015610a7a57816020015b610a676113f3565b815260200190600190039081610a5f5790505b50905060005b8251811015610dd9576001838281518110610ac4577f4e487b7100000000000000000000000000000000000000000000000000000000600052603260045260246000fd5b602002602001015181548110610b03577f4e487b7100000000000000000000000000000000000000000000000000000000600052603260045260246000fd5b90600052602060002090600702016040518061012001604052908160008201548152602001600182018054610b3790611db1565b80601f0160208091040260200160405190810160405280929190818152602001828054610b6390611db1565b8015610bb05780601f10610b8557610100808354040283529160200191610bb0565b820191906000526020600020905b815481529060010190602001808311610b9357829003601f168201915b50505050508152602001600282018054610bc990611db1565b80601f0160208091040260200160405190810160405280929190818152602001828054610bf590611db1565b8015610c425780601f10610c1757610100808354040283529160200191610c42565b820191906000526020600020905b815481529060010190602001808311610c2557829003601f168201915b50505050508152602001600382018054610c5b90611db1565b80601f0160208091040260200160405190810160405280929190818152602001828054610c8790611db1565b8015610cd45780601f10610ca957610100808354040283529160200191610cd4565b820191906000526020600020905b815481529060010190602001808311610cb757829003601f168201915b505050505081526020016004820160009054906101000a900461ffff1661ffff1661ffff1681526020016004820160029054906101000a900473ffffffffffffffffffffffffffffffffffffffff1673ffffffffffffffffffffffffffffffffffffffff1673ffffffffffffffffffffffffffffffffffffffff1681526020016004820160169054906101000a900460ff1615151515815260200160058201548152602001600682015481525050828281518110610dbb577f4e487b7100000000000000000000000000000000000000000000000000000000600052603260045260246000fd5b60200260200101819052508080610dd190611de3565b915050610a80565b508092505050919050565b60008054906101000a900473ffffffffffffffffffffffffffffffffffffffff1673ffffffffffffffffffffffffffffffffffffffff163373ffffffffffffffffffffffffffffffffffffffff1614610e72576040517f08c379a0000000000000000000000000000000000000000000000000000000008152600401610e6990611ac1565b60405180910390fd5b6001805490508110610eb9576040517f08c379a0000000000000000000000000000000000000000000000000000000008152600401610eb090611b21565b60405180910390fd5b600060018281548110610ef5577f4e487b7100000000000000000000000000000000000000000000000000000000600052603260045260246000fd5b906000526020600020906007020190508060040160169054906101000a900460ff1615610f57576040517f08c379a0000000000000000000000000000000000000000000000000000000008152600401610f4e90611b01565b60405180910390fd5b60003411610f9a576040517f08c379a0000000000000000000000000000000000000000000000000000000008152600401610f9190611ae1565b60405180910390fd5b60008160040160029054906101000a900473ffffffffffffffffffffffffffffffffffffffff1690508073ffffffffffffffffffffffffffffffffffffffff166108fc349081150290604051600060405180830381858888f19350505050158015611009573d6000803e3d6000fd5b5060018260040160166101000a81548160ff0219169083151502179055503482600501819055508160040160029054906101000a900473ffffffffffffffffffffffffffffffffffffffff1673ffffffffffffffffffffffffffffffffffffffff16837f952e5301753c5bc62cbfbdbe1b6553cd54796e01da9cfeaaf29921d6ede1a7263460405161109b9190611b61565b60405180910390a3505050565b60606001805480602002602001604051908101604052809291908181526020016000905b828210156113645783829060005260206000209060070201604051806101200160405290816000820154815260200160018201805461110a90611db1565b80601f016020809104026020016040519081016040528092919081815260200182805461113690611db1565b80156111835780601f1061115857610100808354040283529160200191611183565b820191906000526020600020905b81548152906001019060200180831161116657829003601f168201915b5050505050815260200160028201805461119c90611db1565b80601f01602080910402602001604051908101604052809291908181526020018280546111c890611db1565b80156112155780601f106111ea57610100808354040283529160200191611215565b820191906000526020600020905b8154815290600101906020018083116111f857829003601f168201915b5050505050815260200160038201805461122e90611db1565b80601f016020809104026020016040519081016040528092919081815260200182805461125a90611db1565b80156112a75780601f1061127c576101008083540402835291602001916112a7565b820191906000526020600020905b81548152906001019060200180831161128a57829003601f168201915b505050505081526020016004820160009054906101000a900461ffff1661ffff1661ffff1681526020016004820160029054906101000a900473ffffffffffffffffffffffffffffffffffffffff1673ffffffffffffffffffffffffffffffffffffffff1673ffffffffffffffffffffffffffffffffffffffff1681526020016004820160169054906101000a900460ff1615151515815260200160058201548152602001600682015481525050815260200190600101906110cc565b50505050905090565b82805461137990611db1565b90600052602060002090601f01602090048101928261139b57600085556113e2565b82601f106113b457805160ff19168380011785556113e2565b828001600101855582156113e2579182015b828111156113e15782518255916020019190600101906113c6565b5b5090506113ef919061145b565b5090565b60405180610120016040528060008152602001606081526020016060815260200160608152602001600061ffff168152602001600073ffffffffffffffffffffffffffffffffffffffff16815260200160001515815260200160008152602001600081525090565b5b8082111561147457600081600090555060010161145c565b5090565b600061148b61148684611c4f565b611c1e565b9050828152602081018484840111156114a357600080fd5b6114ae848285611d6f565b509392505050565b6000813590506114c581611eca565b92915050565b600082601f8301126114dc57600080fd5b81356114ec848260208601611478565b91505092915050565b60008135905061150481611ee1565b92915050565b60008135905061151981611ef8565b92915050565b60006020828403121561153157600080fd5b600061153f848285016114b6565b91505092915050565b6000806040838503121561155b57600080fd5b6000611569858286016114b6565b925050602061157a8582860161150a565b9150509250929050565b6000806000806080858703121561159a57600080fd5b600085013567ffffffffffffffff8111156115b457600080fd5b6115c0878288016114cb565b945050602085013567ffffffffffffffff8111156115dd57600080fd5b6115e9878288016114cb565b935050604085013567ffffffffffffffff81111561160657600080fd5b611612878288016114cb565b9250506060611623878288016114f5565b91505092959194509250565b60006020828403121561164157600080fd5b600061164f8482850161150a565b91505092915050565b6000611664838361191b565b905092915050565b61167581611d19565b82525050565b61168481611d19565b82525050565b600061169582611c8f565b61169f8185611cb2565b9350836020820285016116b185611c7f565b8060005b858110156116ed57848403895281516116ce8582611658565b94506116d983611ca5565b925060208a019950506001810190506116b5565b50829750879550505050505092915050565b61170881611d2b565b82525050565b61171781611d2b565b82525050565b600061172882611c9a565b6117328185611cc3565b9350611742818560208601611d7e565b61174b81611eb9565b840191505092915050565b600061176182611c9a565b61176b8185611cd4565b935061177b818560208601611d7e565b61178481611eb9565b840191505092915050565b600061179c602183611cd4565b91507f4f6e6c79206f776e65722063616e2063616c6c20746869732066756e6374696f60008301527f6e000000000000000000000000000000000000000000000000000000000000006020830152604082019050919050565b6000611802602583611cd4565b91507f5061796d656e7420616d6f756e74206d7573742062652067726561746572207460008301527f68616e20300000000000000000000000000000000000000000000000000000006020830152604082019050919050565b6000611868601483611cd4565b91507f5061796d656e7420616c72656164792073656e740000000000000000000000006000830152602082019050919050565b60006118a8601683611cd4565b91507f5265717565737420646f6573206e6f74206578697374000000000000000000006000830152602082019050919050565b60006118e8601483611cd4565b91507f5573657220686173206e6f2072657175657374730000000000000000000000006000830152602082019050919050565b6000610120830160008301516119346000860182611a0c565b506020830151848203602086015261194c828261171d565b91505060408301518482036040860152611966828261171d565b91505060608301518482036060860152611980828261171d565b915050608083015161199560808601826119ee565b5060a08301516119a860a086018261166c565b5060c08301516119bb60c08601826116ff565b5060e08301516119ce60e0860182611a0c565b506101008301516119e3610100860182611a0c565b508091505092915050565b6119f781611d37565b82525050565b611a0681611d37565b82525050565b611a1581611d65565b82525050565b611a2481611d65565b82525050565b6000602082019050611a3f600083018461167b565b92915050565b60006020820190508181036000830152611a5f818461168a565b905092915050565b60006080820190508181036000830152611a818187611756565b90508181036020830152611a958186611756565b90508181036040830152611aa98185611756565b9050611ab860608301846119fd565b95945050505050565b60006020820190508181036000830152611ada8161178f565b9050919050565b60006020820190508181036000830152611afa816117f5565b9050919050565b60006020820190508181036000830152611b1a8161185b565b9050919050565b60006020820190508181036000830152611b3a8161189b565b9050919050565b60006020820190508181036000830152611b5a816118db565b9050919050565b6000602082019050611b766000830184611a1b565b92915050565b600061012082019050611b92600083018c611a1b565b8181036020830152611ba4818b611756565b90508181036040830152611bb8818a611756565b90508181036060830152611bcc8189611756565b9050611bdb60808301886119fd565b611be860a083018761167b565b611bf560c083018661170e565b611c0260e0830185611a1b565b611c10610100830184611a1b565b9a9950505050505050505050565b6000604051905081810181811067ffffffffffffffff82111715611c4557611c44611e8a565b5b8060405250919050565b600067ffffffffffffffff821115611c6a57611c69611e8a565b5b601f19601f8301169050602081019050919050565b6000819050602082019050919050565b600081519050919050565b600081519050919050565b6000602082019050919050565b600082825260208201905092915050565b600082825260208201905092915050565b600082825260208201905092915050565b6000611cf082611d65565b9150611cfb83611d65565b925082821015611d0e57611d0d611e2c565b5b828203905092915050565b6000611d2482611d45565b9050919050565b60008115159050919050565b600061ffff82169050919050565b600073ffffffffffffffffffffffffffffffffffffffff82169050919050565b6000819050919050565b82818337600083830152505050565b60005b83811015611d9c578082015181840152602081019050611d81565b83811115611dab576000848401525b50505050565b60006002820490506001821680611dc957607f821691505b60208210811415611ddd57611ddc611e5b565b5b50919050565b6000611dee82611d65565b91507fffffffffffffffffffffffffffffffffffffffffffffffffffffffffffffffff821415611e2157611e20611e2c565b5b600182019050919050565b7f4e487b7100000000000000000000000000000000000000000000000000000000600052601160045260246000fd5b7f4e487b7100000000000000000000000000000000000000000000000000000000600052602260045260246000fd5b7f4e487b7100000000000000000000000000000000000000000000000000000000600052604160045260246000fd5b6000601f19601f8301169050919050565b611ed381611d19565b8114611ede57600080fd5b50565b611eea81611d37565b8114611ef557600080fd5b50565b611f0181611d65565b8114611f0c57600080fd5b5056fea2646970667358221220e51da5103e15cba4f5976a4df19fadaed80120531116f53d121ef67cb1263bb164736f6c63430008000033",
  "immutableReferences": {},
  "source": "// SPDX-License-Identifier: MIT\r\npragma solidity ^0.8.0;\r\n\r\ncontract EWasteManagement {\r\n    address public owner;\r\n\r\n    struct RepairRequest {\r\n        uint256 id;\r\n        string deviceName;\r\n        string deviceIssue;\r\n        string description;\r\n        uint16 purchaseYear;\r\n        address userAddress;\r\n        bool isPaid;\r\n        uint256 amountPaid;\r\n        uint256 timestamp;\r\n    }\r\n\r\n    RepairRequest[] public repairRequests;\r\n\r\n    mapping(uint256 => address) public requestToUser;\r\n    mapping(address => uint256[]) public userRequests;\r\n\r\n    event RequestCreated(\r\n        uint256 indexed requestId,\r\n        string deviceName,\r\n        string deviceIssue,\r\n        string description,\r\n        uint16 purchaseYear,\r\n        address indexed userAddress\r\n    );\r\n\r\n    event PaymentSent(\r\n        uint256 indexed requestId,\r\n        address indexed userAddress,\r\n        uint256 amount\r\n    );\r\n\r\n    constructor() {\r\n        owner = msg.sender;\r\n    }\r\n\r\n    modifier onlyOwner() {\r\n        require(msg.sender == owner, \"Only owner can call this function\");\r\n        _;\r\n    }\r\n\r\n    function createRequest(\r\n        string memory _deviceName,\r\n        string memory _deviceIssue,\r\n        string memory _description,\r\n        uint16 _purchaseYear\r\n    ) public {\r\n        uint256 requestId = repairRequests.length;\r\n\r\n        RepairRequest memory newRequest = RepairRequest({\r\n            id: requestId,\r\n            deviceName: _deviceName,\r\n            deviceIssue: _deviceIssue,\r\n            description: _description,\r\n            purchaseYear: _purchaseYear,\r\n            userAddress: msg.sender,\r\n            isPaid: false,\r\n            amountPaid: 0,\r\n            timestamp: block.timestamp\r\n        });\r\n\r\n        repairRequests.push(newRequest);\r\n        requestToUser[requestId] = msg.sender;\r\n        userRequests[msg.sender].push(requestId);\r\n\r\n        emit RequestCreated(\r\n            requestId,\r\n            _deviceName,\r\n            _deviceIssue,\r\n            _description,\r\n            _purchaseYear,\r\n            msg.sender\r\n        );\r\n    }\r\n\r\n    function payUser(uint256 _requestId) public payable onlyOwner {\r\n        require(_requestId < repairRequests.length, \"Request does not exist\");\r\n\r\n        RepairRequest storage request = repairRequests[_requestId];\r\n        require(!request.isPaid, \"Payment already sent\");\r\n        require(msg.value > 0, \"Payment amount must be greater than 0\");\r\n\r\n        address payable user = payable(request.userAddress);\r\n        user.transfer(msg.value);\r\n\r\n        request.isPaid = true;\r\n        request.amountPaid = msg.value;\r\n\r\n        emit PaymentSent(_requestId, request.userAddress, msg.value);\r\n    }\r\n\r\n    function getAllRequests() public view returns (RepairRequest[] memory) {\r\n        return repairRequests;\r\n    }\r\n\r\n    function getUserRequests(address _user) public view returns (RepairRequest[] memory) {\r\n        uint256[] memory requestIds = userRequests[_user];\r\n        RepairRequest[] memory requests = new RepairRequest[](requestIds.length);\r\n\r\n        for (uint256 i = 0; i < requestIds.length; i++) {\r\n            requests[i] = repairRequests[requestIds[i]];\r\n        }\r\n\r\n        return requests;\r\n    }\r\n\r\n    function getMyRequests() public view returns (RepairRequest[] memory) {\r\n        return getUserRequests(msg.sender);\r\n    }\r\n\r\n    //  Helper to get latest request ID for a user\r\n    function getLatestRequestId(address _user) public view returns (uint256) {\r\n        require(userRequests[_user].length > 0, \"User has no requests\");\r\n        return userRequests[_user][userRequests[_user].length - 1];\r\n    }\r\n}\r\n",
  "sourcePath": "C:\\Users\\rambp\\Desktop\\aavartak-truffle\\contracts\\EWasteManagement.sol",
  "compiler": {
    "name": "solc",
    "version": "0.8.0+commit.c7dfd78e.Emscripten.clang"
  },
  "schemaVersion": "3.4.16",
  "updatedAt": "2025-04-06T08:46:41.914Z",
  "devdoc": {
    "kind": "dev",
    "methods": {},
    "version": 1
  },
  "userdoc": {
    "kind": "user",
    "methods": {},
    "version": 1
  }
}